:100000000C9435000C945D000C945D000C945D0024
:100010000C945D000C945D000C945D000C945D00EC
:100020000C945D000C945D000C945D000C945D00DC
:100030000C945D000C945D000C945D000C945D00CC
:100040000C9492020C945D000C9460020C943A02A1
:100050000C945D000C945D000C945D000C945D00AC
:100060000C945D000C945D00DC0211241FBECFEFE8
:10007000D8E0DEBFCDBF24E0AAE5B3E001C01D9209
:10008000AB3AB207E1F713E0A0E0B1E0ECE1FBE04E
:1000900002C005900D92AA35B107D9F710E0C5E36B
:1000A000D0E004C02197FE010E948105C433D1072E
:1000B000C9F70E941E030C948C050C940000E5E91E
:1000C000F3E0A089B18982E08C93A485B5851C9268
:1000D000A685B7858FEC8C93108EA489B58986E0B0
:1000E0008C93A289B3898C9180618C93A289B38906
:1000F0008C9188608C93A289B3898C9180688C9351
:100100000288F389E02D80818F7D80830895CF92CE
:10011000DF92EF92FF920F931F932FB7F894C09046
:100120009103D0909203E0909303F09094032FBF3B
:10013000DC01CB018C0D9D1DAE1DBF1D4FB7F8948A
:1001400000919103109192032091930330919403B5
:100150004FBF0C151D052E053F0528F08017910790
:10016000A207B30758F71F910F91FF90EF90DF9010
:10017000CF900895CF92DF92EF92FF920F931F934B
:10018000CF93DF936C017A018B01C0E0D0E0CE15F4
:10019000DF0589F0D8016D918D01D601ED91FC91BB
:1001A0000190F081E02DC6010995892B11F47E01A3
:1001B00002C02196ECCFC701DF91CF911F910F9123
:1001C000FF90EF90DF90CF900895089580E090E049
:1001D0000895FC01538D448D252F30E0842F90E04D
:1001E000821B930B541710F0CF9608950197089532
:1001F000FC01918D828D981761F0828DDF01A80F2F
:10020000B11D5D968C91928D9F5F9F73928F90E050
:1002100008958FEF9FEF0895FC01918D828D9817BF
:1002200031F0828DE80FF11D858D90E008958FEFFC
:100230009FEF0895FC01918D228D892F90E0805CC5
:100240009F4F821B91098F739927089585E993E049
:100250000E941A0121E0892B09F420E0822F0895E1
:10026000FC01848DDF01A80FB11DA35ABF4F2C9153
:10027000848D90E001968F739927848FA689B78922
:100280002C93A089B1898C9180648C93938D848DFB
:10029000981306C00288F389E02D80818F7D8083CA
:1002A0000895EF92FF920F931F93CF93DF93EC018A
:1002B00081E0888F9B8D8C8D981305C0E889F98922
:1002C000808185FD24C0F62E0B8D10E00F5F1F4F3F
:1002D0000F731127E02E8C8DE8120CC00FB607FCAF
:1002E000FACFE889F989808185FFF5CFCE010E9498
:1002F0003001F1CF8B8DFE01E80FF11DE35AFF4F66
:10030000F0820B8FEA89FB898081806207C0EE89C9
:10031000FF896083E889F98980818064808381E036
:1003200090E0DF91CF911F910F91FF90EF90089592
:10033000CF93DF93EC01888D8823C9F0EA89FB898C
:10034000808185FD05C0A889B9898C9186FD0FC083
:100350000FB607FCF5CF808185FFF2CFA889B98958
:100360008C9185FFEDCFCE010E943001E7CFDF9168
:10037000CF91089580E090E0892B29F00E9426011A
:1003800081110C94000008950E9487056115710584
:1003900079F0FB0101900020E9F73197AF01461B8E
:1003A000570BDC01ED91FC910280F381E02D099463
:1003B00080E090E008954F925F926F927F92EF926B
:1003C000FF920F931F93CF93DF93CDB7DEB7A19723
:1003D0000FB6F894DEBF0FBECDBF7C01FA01CB0192
:1003E00019A2223008F42AE08E010F5D1F4F422E21
:1003F000512C612C712CBF01A30192010E945F0559
:10040000F901CA01015011096A3014F4605D01C09C
:10041000695CD8016C93232B242B252B61F7B80141
:10042000C7010E94C601A1960FB6F894DEBF0FBEA9
:10043000CDBFDF91CF911F910F91FF90EF907F90F3
:100440006F905F904F9008950F931F93CF93DF931A
:100450001F92CDB7DEB78C0179830E945105798157
:10046000672FC80101960F90DF91CF911F910F91D7
:100470000C9451051F920F920FB60F9211242F93D7
:100480003F934F935F936F937F938F939F93AF931C
:10049000BF93EF93FF9385E993E00E943001FF91B2
:1004A000EF91BF91AF919F918F917F916F915F91EC
:1004B0004F913F912F910F900FBE0F901F90189565
:1004C0001F920F920FB60F9211242F938F939F9329
:1004D000EF93FF93E091A503F091A6038081E09153
:1004E000AB03F091AC0382FD12C090818091AE030A
:1004F0008F5F8F732091AF03821751F0E091AE03AD
:10050000F0E0EB56FC4F958F8093AE0301C08081E5
:10051000FF91EF919F918F912F910F900FBE0F90B0
:100520001F9018951F920F920FB60F9211242F93C0
:100530003F938F939F93AF93BF938091910390913B
:100540009203A0919303B091940330915E0323E052
:10055000230F2D3720F40196A11DB11D05C026E8FB
:10056000230F0296A11DB11D20935E03809391037A
:1005700090939203A0939303B093940380915A03B2
:1005800090915B03A0915C03B0915D030196A11D66
:10059000B11D80935A0390935B03A0935C03B093C7
:1005A0005D03BF91AF919F918F913F912F910F90DC
:1005B0000FBE0F901F901895E5E9F3E013821282A9
:1005C00088EE93E0A0E0B0E084839583A683B783B0
:1005D00080E293E09183808385EC90E09587848727
:1005E00084EC90E09787868780EC90E0918B808BFD
:1005F00081EC90E0938B828B82EC90E0958B848BE6
:1006000086EC90E0978B868B118E128E138E148E53
:10061000E2E3F4E0168217821086118612861386B2
:100620001486158616861786108A118A128A138AEE
:10063000148A158A88E08093AA040895789484B572
:10064000826084BD84B5816084BD85B5826085BDCE
:1006500085B5816085BD80916E00816080936E005C
:10066000109281008091810082608093810080914E
:1006700081008160809381008091800081608093FF
:1006800080008091B10084608093B1008091B000BF
:1006900081608093B00080917A00846080937A00BA
:1006A00080917A00826080937A0080917A008160E4
:1006B00080937A0080917A00806880937A0010920B
:1006C000C100109276041092770410927804109270
:1006D000790410923404109235041092360410926A
:1006E000370468EB7BE080E090E00E94870085E9BA
:1006F00093E090937504809374040E945F002FB779
:10070000F8948091910390919203A0919303B091FA
:1007100094032FBF8093340490933504A093360440
:10072000B09337046EE273E0809174049091750485
:100730000E94C6016AE070E080E090E00E948700BD
:1007400081E08093480480E1E1E8F3E0DF01982F45
:100750001D929A95E9F7E1E7F3E0DF01982F1D92EA
:100760009A95E9F7E1E6F3E0DF011D928A95E9F752
:1007700088E08093AA048EE490E0909362038093D3
:10078000610380E892E0909382038093810382E387
:1007900092E0909372038093710388E390E09093CA
:1007A00064038093630382EC91E0909384038093CD
:1007B00083038AE891E090937403809373038EE23D
:1007C00090E090936603809365038EE291E09093AE
:1007D00086038093850380E091E090937603809375
:1007E00075030E945F0060E473E085E993E00E9476
:1007F000C60165E473E085E993E00E94C60140917B
:10080000AA0450E060E070E02AE085E993E00E94ED
:10081000DB016DE373E085E993E00E94C60160911E
:10082000AA0480915F03909160030E94510580911A
:100830005F039091600301969093600380935F0340
:10084000C0E0D0E08091AA0490E0C817D907E4F492
:1008500060E070E080915F03909160030E94240249
:1008600080915F039091600360E070E002960E94C7
:10087000240280915F03909160030496909360033B
:1008800080935F032196DECF31E8232E33E0332EB1
:1008900041E6442E43E0542ECAE7D4E05E016201F3
:1008A0008101E12CF12C8091AA0490E0E816F90670
:1008B0000CF04DC0F80180819181892BE1F1D601C6
:1008C0008D909C9081149104B1F1B40180915F03EB
:1008D000909160030E94240280915F0390916003D5
:1008E00002969093600380935F03F5019183808368
:1008F000612C712C68147904F4F4C301880F991FDA
:10090000D8012D913C91F901E80FF91F60817181A7
:1009100080915F03909160030E94240280915F03A5
:100920009091600302969093600380935F03BFEF02
:100930006B1A7B0ADFCFEFEFEE1AFE0A0E5F1F4F36
:10094000F2E0CF0ED11C86E0A80EB11CACCF81E73F
:10095000A82E83E0B82E9AE7C92E94E0D92EE12C78
:10096000F12C6091AA04862F90E0E816F9060CF0AD
:100970003FC0D1018D919D911D01892B61F1F20143
:10098000808091808114910431F180915F03909176
:100990006003D60113969C938E93129700E010E0AB
:1009A00008151905C4F4D501ED91FC91E00FF11F74
:1009B000608180915F03909160030E945105809156
:1009C0005F039091600301969093600380935F03AF
:1009D0000F5F1F4FE5CFBFEFEB1AFB0AE2E04E0EB1
:1009E000511CF6E0CF0ED11C82E0A80EB11CB9CF8D
:1009F00080E090E00E945105E12CF12C01E010E034
:100A00008091AA0490E0E816F90694F4688179814F
:100A1000C8010E9424026A817B81C80102960E945B
:100A200024020C5F1F4F9FEFE91AF90A2696E8CFC0
:100A3000C12CD12C7601C6010E944905C82F2AE09D
:100A4000B701A60185E993E00E94DB0167E573E049
:100A500085E993E00E94C6014C2F50E060E070E011
:100A600020E185E993E00E94DB016DE373E085E915
:100A700093E00E94C601AFEFCA1ADA0AEA0AFA0A3C
:100A8000C114B4E0DB06E104F104A9F60E94BA0146
:100A9000FDCFF999FECF92BD81BDF89A992780B517
:100AA0000895262FF999FECF1FBA92BD81BD20BDB2
:100AB0000FB6F894FA9AF99A0FBE01960895A1E23A
:100AC0001A2EAA1BBB1BFD010DC0AA1FBB1FEE1FC8
:100AD000FF1FA217B307E407F50720F0A21BB30B13
:100AE000E40BF50B661F771F881F991F1A9469F78F
:100AF00060957095809590959B01AC01BD01CF01EB
:100B00000895EE0FFF1F0590F491E02D099481E008
:0C0B100090E0F8940C948C05F894FFCF52
:100B1C00080808060208060210080808060208065B
:100B2C000210080602080602020202060202080669
:100B3C0002020202060202090602080602108801DD
:100B4C00880188013701D20188013701D20188015F
:100B5C004B024B024B026E02D20172013701D201E1
:100B6C0088011003880188011003E402BA02930281
:100B7C006E0293020000880100002A020B02EE01B3
:100B8C00D201B801D2010000370100007201370117
:100B9C00D20188013701D20188010C0C0C0C0C0C11
:100BAC0006030C0C0C0C0C0C06030C0C0C0C0C0C97
:100BBC0006030C0C0C0C0C0C060612121206060684
:100BCC000606061212121212120A0A0A0A0A0A035C
:100BDC00030306010B02DC00B801E900D20100009E
:100BEC00000006010B02DC00B801E900D201000094
:100BFC000000AF005D01930026019C00370100004E
:100C0C000000AF005D01930026019C00370100003D
:100C1C000000370115012601150137013701D000FD
:100C2C00C4001501060172015D01A500D201B801D5
:100C3C009F013701F700E900DC00D0000000000044
:100C4C0000000C0C0C0C0C0C0C0C0C0C0C0C0C0CF0
:100C5C000C0C0C0C0C0C0C0C0C0C0C0C0C0C0C0CC8
:100C6C000C0C0909090C0C0C0C0C0C0C0C0C0C0CC1
:100C7C000C0C0C0C0C0C0C0C0C0C0C0C0C0C0C0CA8
:100C8C000C0909090C0C0C0C0C0C0C0C0C0C0C0CA1
:100C9C004D0A4D0A00004D0A00002D084D0A0000B7
:100CAC00400C0000000000002006000000000000C6
:100CBC002D080000000020060000000027050000A1
:100CCC000000E0060000B80700004907E00600003D
:100CDC0020064D0A400CC00D0000EA0A400C000032
:100CEC004D0A00002D082D09B807000000002D0842
:100CFC000000000020060000000027050000000096
:100D0C00E0060000B80700004907E00600002006D6
:100D1C004D0A400CC00D0000EA0A400C00004D0AC0
:100D2C0000002D082D09B80700000000000000008D
:100D3C005101BA00E90098011A01F8000C01564D56
:100D4C004450565F317C315F564D4450560D0A006D
:100D5C0054657374004E756D626572206F662073F6
:0A0D6C006F6E67733A200009000063
:00000001FF
