:100000000C9463000C948B000C948B000C948B006C
:100010000C948B000C948B000C948B000C947F053B
:100020000C948B000C948B000C948B000C948B0024
:100030000C948B000C948B000C948B000C948B0014
:100040000C9433060C948B000C9401060C94DB0585
:100050000C948B000C948B000C948B000C948B00F4
:100060000C948B000C948B000000000023002600F1
:10007000290000000000240027002A0002000000E0
:1000800000250028002B00040404040404040402D6
:100090000202020202030303030303010204081025
:1000A00020408001020408102001020408102000F2
:1000B0000000080002010000030407000000000027
:1000C000000000007D0611241FBECFEFD8E0DEBF88
:1000D000CDBF11E0A0E0B1E0E6EAF8E102C0059092
:1000E0000D92A238B107D9F722E0A2E8B1E001C031
:1000F0001D92AB35B207E1F710E0C3E6D0E004C0D3
:100100002197FE010E94190BC236D107C9F70E9440
:10011000AD060C94510C0C9400008F929F92AF92FC
:10012000BF92CF92DF92EF92FF92CF932091030183
:100130002C3021F02F3F09F007C204C0ECE7F0E0BB
:10014000C49172C02CE020930301ECE7F0E0C4916D
:10015000CF3F09F4F9C1C13009F1C23009F441C0FF
:10016000C11162C014BC15BC24B5226024BD25B5E4
:10017000216025BDE3E9F0E0E491F0E0EE0FFF1F20
:10018000E358FF4F259134913093940120939301CC
:10019000E7EAF0E0E491E093920148C01092800019
:1001A000109281002091810028602093810020918D
:1001B0008100216020938100E3E9F0E0E491F0E028
:1001C000EE0FFF1FE358FF4F2591349130939101BB
:1001D00020939001E7EAF0E0E491E0938F01C1E021
:1001E00025C01092B0001092B1002091B0002260A2
:1001F0002093B0002091B10021602093B100E3E989
:10020000F0E0E491F0E0EE0FFF1FE358FF4F25917F
:10021000349130938E0120938D01E7EAF0E0E49170
:10022000E0938C01C2E002C0C7FD8EC1E7EAF0E0B6
:100230004491E3E9F0E02491222399F030E0220F89
:10024000331FF901EE58FF4FA591B491F901E3581E
:10025000FF4F259134912FB7F894EC91E42BEC9358
:100260002FBF4C01A12CB12C8C2F8D7F09F0A9C080
:1002700060E072E18AE790E0A50194010E94E60A3D
:1002800069017A01BA01A901415051096109710955
:100290004F3F51056105710509F008F445C060E460
:1002A00072E48FE090E0A50194010E94E60ABA0191
:1002B000A9014150510961097109C230E9F44F3F68
:1002C00051056105710509F008F43CC160E970ED64
:1002D00083E090E0A50194010E94E60ABA01A90119
:1002E00041505109610971094F3F5105610571057F
:1002F00009F0A8F583E05EC04F3F51056105710527
:10030000A9F0A0F068E478EE81E090E0A501940106
:100310000E94E60ABA01A901415051096109710917
:10032000CC2309F4F0C0E7C081E001C082E0CC2317
:1003300089F040C0D701C6012AE0B595A7959795E9
:1003400087952A95D1F7AC01BD014150510961094A
:10035000710985E095B5987F892B85BD66C068E4F5
:1003600078EE81E090E0A50194010E94E60ABA01CE
:10037000A90141505109610971094F3F51056105BA
:10038000710509F008F48BC064E274EF80E090E03E
:10039000A50194010E94E60ABA01A9014150510940
:1003A000610971094F3F51056105710511F008F0B0
:1003B00078C085E09091B100987F892B8093B1003F
:1003C0002EC060E072E18AE790E0A50194010E94EE
:1003D000E60ABA01A90141505109610971094115A3
:1003E000510581E06807710580F068E478EE81E0EE
:1003F00090E0A50194010E94E60ABA01A9014150CA
:1004000051096109710993E001C091E0C13039F4EB
:1004100080918100887F892B8093810018C0C13032
:10042000B1F0C23049F1C1118FC047BD8FEF9FEFCE
:10043000DC0180939D0190939E01A0939F01B09356
:10044000A00180916E00826080936E007DC0509309
:100450008900409388008FEF9FEFDC018093990122
:1004600090939A01A0939B01B0939C0180916F009F
:10047000826080936F0068C04093B3008FEF9FEF5E
:10048000DC018093950190939601A0939701B0931E
:1004900098018091700082608093700055C084E064
:1004A00089CF62E17AE780E090E0A50194010E94A3
:1004B000E60ABA01A90141505109610971094F3F8A
:1004C000510561057105A9F0A0F0D701C6013AE018
:1004D000B595A795979587953A95D1F7AC01BD014C
:1004E0004150510961097109CC2309F432CF87E0E9
:1004F00061CF86E01CCF4F3F51056105710509F0C2
:1005000080F684E014CF4F3F510561057105C1F0BD
:10051000B8F062E17AE780E090E0A50194010E94E2
:10052000E60ABA01A90141505109610971094F3F19
:1005300051056105710511F008F0FCCE84E00ACF89
:1005400083E008CF82E036CFCF91FF90EF90DF902D
:10055000CF90BF90AF909F908F900895CF92DF92F1
:10056000EF92FF920F931F93CF93DF936C017A0169
:100570008B01C0E0D0E0CE15DF0589F0D8016D9188
:100580008D01D601ED91FC910190F081E02DC60125
:100590000995892B11F47E0102C02196ECCFC70189
:1005A000DF91CF911F910F91FF90EF90DF90CF904F
:1005B0000895089580E090E00895FC01538D448DE6
:1005C000252F30E0842F90E0821B930B541710F0FE
:1005D000CF96089501970895FC01918D828D98170B
:1005E00061F0828DDF01A80FB11D5D968C91928D17
:1005F0009F5F9F73928F90E008958FEF9FEF089514
:10060000FC01918D828D981731F0828DE80FF11DDC
:10061000858D90E008958FEF9FEF0895FC01918DF7
:10062000228D892F90E0805C9F4F821B91098F73F0
:100630009927089581EA91E00E940E0321E0892B19
:1006400009F420E0822F0895FC01848DDF01A80FBA
:10065000B11DA35ABF4F2C91848D90E001968F73EA
:100660009927848FA689B7892C93A089B1898C9109
:1006700080648C93938D848D981306C00288F389CF
:10068000E02D80818F7D80830895EF92FF920F93FC
:100690001F93CF93DF93EC0181E0888F9B8D8C8D2E
:1006A000981305C0E889F989808185FD24C0F62E5C
:1006B0000B8D10E00F5F1F4F0F731127E02E8C8DF5
:1006C000E8120CC00FB607FCFACFE889F9898081DF
:1006D00085FFF5CFCE010E942403F1CF8B8DFE0163
:1006E000E80FF11DE35AFF4FF0820B8FEA89FB8977
:1006F0008081806207C0EE89FF896083E889F9897B
:1007000080818064808381E090E0DF91CF911F91B0
:100710000F91FF90EF900895CF93DF93EC01888DB8
:100720008823C9F0EA89FB89808185FD05C0A889F5
:10073000B9898C9186FD0FC00FB607FCF5CF80817B
:1007400085FFF2CFA889B9898C9185FFEDCFCE01C5
:100750000E942403E7CFDF91CF91089580E090E0DD
:10076000892B29F00E941A0381110C94000008952E
:10077000833081F028F4813099F08230A1F008951F
:100780008730A9F08830B9F08430D1F480918000AE
:100790008F7D03C0809180008F77809380000895C3
:1007A00084B58F7702C084B58F7D84BD0895809114
:1007B000B0008F7703C08091B0008F7D8093B00030
:1007C0000895CF93DF93282F30E0F901E155FF4FD3
:1007D0008491F901E556FF4FD491F901E957FF4F94
:1007E000C491CC2399F081110E94B803EC2FF0E062
:1007F000EE0FFF1FE358FF4FA591B4918FB7F89408
:100800009C91ED2FE095E923EC938FBFDF91CF9181
:10081000089590910301981324C0ECE7F0E0E4916F
:100820009FEF90930301E130B9F098F0E230C9F402
:10083000909170009D7F9093700091E09093B00034
:100840009091B100987F94609093B1001092B300A2
:1008500008C010926E0005C090916F009D7F90932C
:100860006F000C94E103CF93DF93282F30E0F90160
:10087000E155FF4F8491F901E556FF4FD491F901FD
:10088000E957FF4FC491CC2391F081110E94B80326
:10089000EC2FF0E0EE0FFF1FE859FF4FA591B49148
:1008A000EC91ED2381E090E021F480E002C080E053
:1008B00090E0DF91CF9108953FB7F8948091870140
:1008C00090918801A0918901B0918A0126B5A89BD9
:1008D00005C02F3F19F00196A11DB11D3FBFBA2FD2
:1008E000A92F982F8827820F911DA11DB11DBC0132
:1008F000CD0142E0660F771F881F991F4A95D1F7F7
:1009000008958F929F92AF92BF92CF92DF92EF9213
:10091000FF926B017C010E945C044B015C01C114DD
:10092000D104E104F104F1F00E945C04DC01CB018C
:1009300088199909AA09BB09883E9340A105B10508
:1009400070F321E0C21AD108E108F10888EE880EA0
:1009500083E0981EA11CB11CC114D104E104F10470
:1009600019F7DDCFFF90EF90DF90CF90BF90AF9061
:100970009F908F900895009769F0FC0101900020EE
:10098000E9F73197AF01481B590BBC0181EA91E0AF
:100990000C94AE0280E090E008958F929F92AF9207
:1009A000BF920F931F93CF93DF93CDB7DEB7A1977D
:1009B0000FB6F894DEBF0FBECDBF19A2423008F4C7
:1009C0004AE08E010F5D1F4F842E912CA12CB12C7B
:1009D000A50194010E94C40AE62FB901CA01015081
:1009E0001109EA3014F4E05D01C0E95CD801EC9330
:1009F000232B242B252B61F7C8010E94BB04A19651
:100A00000FB6F894DEBF0FBECDBFDF91CF911F911F
:100A10000F91BF90AF909F908F900895CF92DF92EB
:100A2000EF92FF92CF93DF936115710561F4E0912E
:100A3000A101F091A2010190F081E02D682F81EADF
:100A400091E009952AC06C01990FEE08FF086A3001
:100A50007105F1F4F7FE1AC0E091A101F091A20135
:100A60000190F081E02D6DE281EA91E00995EC01C1
:100A700066277727CB016C197D098E099F094AE00B
:100A80000E94CD047C01EC0EFD1E08C04AE001C0AE
:100A9000462FC701B6010E94CD047C018CE291E093
:100AA0000E94BB048E0D9F1DDF91CF91FF90EF90B0
:100AB000DF90CF9008950E944C0C0C947209EF9235
:100AC000FF921F93CF93DF937C01FC01C081D18102
:100AD000CE010E945D05182FCE0101960E945D0592
:100AE0002296F701D183C083212F30E0A901582B32
:100AF000CA01DF91CF911F91FF90EF9008951F924F
:100B00000F920FB60F9211242F933F934F935F9341
:100B10006F937F938F939F93AF93BF93EF93FF93C5
:100B20008091950190919601A0919701B0919801C3
:100B3000892B8A2B8B2B51F180918C01E0918D01B7
:100B4000F0918E0190818927808380919501909109
:100B50009601A0919701B0919801181619061A06EE
:100B60001B06C4F48091950190919601A091970184
:100B7000B09198010197A109B109809395019093D3
:100B80009601A0939701B093980104C0809103014E
:100B90000E940904FF91EF91BF91AF919F918F91B6
:100BA0007F916F915F914F913F912F910F900FBE69
:100BB0000F901F9018951F920F920FB60F9211244D
:100BC0002F933F934F935F936F937F938F939F9355
:100BD000AF93BF93EF93FF9381EA91E00E942403C8
:100BE000FF91EF91BF91AF919F918F917F916F9105
:100BF0005F914F913F912F910F900FBE0F901F90DB
:100C000018951F920F920FB60F9211242F938F9366
:100C10009F93EF93FF93E091B101F091B201808136
:100C2000E091B701F091B80182FD12C090818091EE
:100C3000BA018F5F8F732091BB01821751F0E09151
:100C4000BA01F0E0EF55FE4F958F8093BA0101C0D5
:100C50008081FF91EF919F918F912F910F900FBE07
:100C60000F901F9018951F920F920FB60F9211249C
:100C70002F933F938F939F93AF93BF938091830163
:100C800090918401A0918501B091860130918201FB
:100C900023E0230F2D3720F40196A11DB11D05C0BF
:100CA00026E8230F0296A11DB11D20938201809397
:100CB000830190938401A0938501B0938601809174
:100CC000870190918801A0918901B0918A010196D4
:100CD000A11DB11D8093870190938801A093890184
:100CE000B0938A01BF91AF919F918F913F912F91C6
:100CF0000F900FBE0F901F901895E1EAF1E013825C
:100D0000128288EE93E0A0E0B0E084839583A6830E
:100D1000B7838EE191E09183808385EC90E09587A5
:100D2000848784EC90E09787868780EC90E0918BB5
:100D3000808B81EC90E0938B828B82EC90E0958BA2
:100D4000848B86EC90E0978B868B118E128E138E9F
:100D5000148E84E080933E020895CF93DF93CDB745
:100D6000DEB760970FB6F894DEBF0FBECDBF7894A4
:100D700084B5826084BD84B5816084BD85B58260A0
:100D800085BD85B5816085BD80916E008160809351
:100D90006E001092810080918100826080938100BA
:100DA00080918100816080938100809180008160CA
:100DB000809380008091B10084608093B100809125
:100DC000B00081608093B00080917A00846080934D
:100DD0007A0080917A00826080937A0080917A0014
:100DE000816080937A0080917A00806880937A0095
:100DF0001092C100E091B101F091B20182E08083D4
:100E0000E091AD01F091AE011082E091AF01F0915F
:100E1000B0018FEC80831092B901E091B501F0919F
:100E2000B60186E08083E091B301F091B401808146
:100E300080618083E091B301F091B401808188608A
:100E40008083E091B301F091B40180818068808358
:100E5000E091B301F091B40180818F7D808380E0C7
:100E600090E00E94720980933E0281E090E09A83B4
:100E700089833EE3C32E32E0D32E7601A12CB12C20
:100E800036E0E30EF11C80913E0290E0A816B90610
:100E90000CF063C0CE0101960E945F05F6019283BB
:100EA0008183CE0101960E945F05F60194838383BE
:100EB00009811A81C8010E945D05F7018083C8017C
:100EC00001969A8389830E945D05F701319780839B
:100ED0000E5F1F4F1A830983FFEFAF1ABF0A26E088
:100EE000C20ED11CCDCF809102018823E1F0109277
:100EF000020180918B0190E0019663E070E00E9416
:100F0000B00A80938B018FE291E00E94BB04609154
:100F10008B0170E080E090E04AE00E94CD048CE21A
:100F200091E00E94BB0480918B0181117AC082E024
:100F30000E9433040197D9F48CED90E00E948D005B
:100F400000E010E086E391E00E94BB046AE070E0FC
:100F5000C8010E940E050E94AE038AE00E9433047D
:100F6000019709F4C0CF81E080930201DCCF83E0D8
:100F70000E943304019739F489EE90E00E948D00BD
:100F800001E010E0DFCF84E00E943304019739F4E0
:100F90008EEE91E00E948D0002E010E0D3CF85E05C
:100FA0000E943304019739F486E091E00E948D009D
:100FB00003E010E0C7CF86E00E943304019739F4C4
:100FC00086E291E00E948D0004E010E0BBCF87E054
:100FD0000E943304019739F48AE491E00E948D0065
:100FE00005E010E0AFCF88E00E943304019739F4A8
:100FF0008DE591E00E948D0006E010E0A3CF89E02E
:101000000E943304019739F488E891E00E948D0032
:1010100007E010E097CF8CE00E9409040FEF1FEF6C
:1010200091CF813079F08AE091E09A878987E4E472
:10103000F2E0FC83EB832EE332E03E832D83212C10
:10104000312C6FC082E00E943304019719F480E7CD
:1010500093E037C083E00E943304019719F484EAD7
:1010600093E02FC084E00E943304019719F480EECE
:1010700096E027C085E00E943304019719F488EBBD
:1010800097E01FC086E00E943304019719F487E1BE
:1010900094E017C087E00E943304019719F487E9B0
:1010A00094E00FC088E00E943304019719F487E2AE
:1010B00095E007C089E00E943304019729F485E791
:1010C00095E00E948D0047CF8CE00E94090443CF39
:1010D0008EE691E00E94BB048CE291E00E94BB048A
:1010E000C12CD12C980121503109388B2F872F85A5
:1010F0003889C216D3060CF499C08B859C850E9452
:10110000B40BC7010E94B40B3FEF231A330A8D8141
:101110009E8106969E838D83EB81FC813696FC83AF
:10112000EB8380913E0290E0281639060CF013CF35
:10113000E985FA8580813296FA87E9870E9433042F
:10114000019711F787E491E00E94BB046AE070E028
:10115000C1010E940E05ED81FE81A380B480EB8168
:10116000FC8131970081ED81FE81818192819A839A
:101170008983EB81FC81808190E0909301018093D1
:10118000000186E591E00E94BB0460E170E080917F
:101190000001909101010E940E058EE591E00E94F0
:1011A000BB04602F70E080E090E04AE00E94CD0434
:1011B0008CE291E00E94BB0410E0C801880F991FE7
:1011C0000E941F0B8B879C87C8010E941F0B7C010C
:1011D000FB85FF832C8528879E878D872C01CF2E4A
:1011E000D22EA81AB90A4501840C951CC2018E1989
:1011F0009F09801791070CF06BCFCE0101960E94DA
:101200005F053C01C4010E945D05982E8AE691E0CD
:101210000E94BB048CE291E00E94BB04F601619243
:1012200071926F01F20191922F01DDCF8AE791E077
:101230000E94BB046AE070E0C6010E940E05EF81C7
:10124000F88501911191F887EF836AE070E0C80199
:101250000E940E05ED85FE85B190FE87ED872091F9
:10126000000130910101032E000C440B550B60E688
:101270007AEE80E090E00E94E60AB901330F880B15
:10128000990B0E94240A2B013C016B2D66956695F3
:1012900070E080E090E00E94240A9B01AC01C30151
:1012A000B2010E947A090E94EC094B01770FAA084B
:1012B000BB080115110559F0C8010E948D00C50138
:1012C000B4010E9481048CE00E94090407C08CE0F4
:1012D0000E94E103C501B4010E948104FFEFCF1A0F
:1012E000DF0A05CFF999FECF92BD81BDF89A992703
:1012F00080B508950E948E090C94760A0E946F0AA8
:1013000058F00E94680A40F029F45F3F29F00C94DD
:101310005F0A51110C94AA0A0C94650A0E94870A6C
:1013200068F39923B1F3552391F3951B550BBB2714
:10133000AA2762177307840738F09F5F5F4F220F59
:10134000331F441FAA1FA9F335D00E2E3AF0E0E850
:1013500032D091505040E695001CCAF72BD0FE2F9A
:1013600029D0660F771F881FBB1F2617370748072E
:10137000AB07B0E809F0BB0B802DBF01FF279358E6
:101380005F4F3AF09E3F510578F00C945F0A0C9441
:10139000AA0A5F3FE4F3983ED4F386957795679564
:1013A000B795F7959F5FC9F7880F911D969587951B
:1013B00097F90895E1E0660F771F881FBB1F62173A
:1013C00073078407BA0720F0621B730B840BBA0BF8
:1013D000EE1F88F7E09508950E94F3096894B11113
:1013E0000C94AA0A08950E948F0A88F09F5798F0DB
:1013F000B92F9927B751B0F0E1F0660F771F881F1A
:10140000991F1AF0BA95C9F714C0B13091F00E9433
:10141000A90AB1E008950C94A90A672F782F8827AC
:10142000B85F39F0B93FCCF3869577956795B3955A
:10143000D9F73EF490958095709561957F4F8F4FC9
:101440009F4F0895E89409C097FB3EF490958095CE
:10145000709561957F4F8F4F9F4F9923A9F0F92F7A
:1014600096E9BB279395F695879577956795B795F8
:10147000F111F8CFFAF4BB0F11F460FF1BC06F5FDE
:101480007F4F8F4F9F4F16C0882311F096E911C0F0
:10149000772321F09EE8872F762F05C0662371F011
:1014A00096E8862F70E060E02AF09A95660F771F25
:1014B000881FDAF7880F9695879597F9089597F919
:1014C0009F6780E870E060E008959FEF80EC0895EA
:1014D00000240A9416161706180609060895002413
:1014E0000A9412161306140605060895092E03948D
:1014F000000C11F4882352F0BB0F40F4BF2B11F401
:1015000060FF04C06F5F7F4F8F4F9F4F089557FD5F
:101510009058440F551F59F05F3F71F04795880F61
:1015200097FB991F61F09F3F79F0879508951216F8
:1015300013061406551FF2CF4695F1DF08C01616A4
:1015400017061806991FF1CF869571056105089455
:101550000895E894BB2766277727CB0197F908956C
:1015600097FB072E16F4009407D077FD09D00E9450
:10157000050B07FC05D03EF4909581959F4F08958B
:10158000709561957F4F0895A1E21A2EAA1BBB1B8F
:10159000FD010DC0AA1FBB1FEE1FFF1FA217B3073F
:1015A000E407F50720F0A21BB30BE40BF50B661F55
:1015B000771F881F991F1A9469F760957095809519
:1015C00090959B01AC01BD01CF010895052E97FBBD
:1015D0001EF400940E94FD0A57FD07D00E94C40A21
:1015E00007FC03D04EF40C94FD0A509540953095BD
:1015F00021953F4F4F4F5F4F08959095809570957F
:1016000061957F4F8F4F9F4F0895AA1BBB1B51E1E0
:1016100007C0AA1FBB1FA617B70710F0A61BB70B62
:10162000881F991F5A95A9F780959095BC01CD0107
:101630000895EE0FFF1F0590F491E02D0994CF93CC
:10164000DF938230910510F482E090E0E09159023E
:10165000F0915A0220E030E0C0E0D0E0309711F184
:101660004081518148175907C0F04817590761F464
:1016700082819381209719F09B838A832BC090935A
:101680005A028093590226C02115310519F04217DC
:10169000530718F49A01BE01DF01EF010280F381C4
:1016A000E02DDCCF2115310509F1281B390B243041
:1016B000310590F412968D919C91139761157105E7
:1016C00021F0FB019383828304C090935A0280939C
:1016D0005902FD01329644C0FD01E20FF31F8193D0
:1016E0009193225031092D933C933AC02091570297
:1016F00030915802232B41F42091060130910701CB
:101700003093580220935702209104013091050133
:101710002115310541F42DB73EB740910801509194
:101720000901241B350BE0915702F0915802E21792
:10173000F307A0F42E1B3F0B2817390778F0AC01F4
:101740004E5F5F4F2417350748F04E0F5F1F5093D1
:101750005802409357028193919302C0E0E0F0E079
:10176000CF01DF91CF9108950F931F93CF93DF9314
:10177000009709F48CC0FC01329713821282009109
:10178000590210915A020115110581F4208131810D
:10179000820F931F20915702309158022817390762
:1017A00079F5F0935802E093570271C0D80140E0F8
:1017B00050E0AE17BF0750F412962D913C9113974D
:1017C000AD012115310509F1D901F3CF9D01DA01F0
:1017D0003383228360817181860F971F821793075D
:1017E00069F4EC0128813981260F371F2E5F3F4FA6
:1017F000318320838A819B8193838283452B29F4C3
:10180000F0935A02E093590242C01396FC93EE9370
:101810001297ED01499159919E01240F351FE2174E
:10182000F30771F480819181840F951F02961196C0
:101830009C938E938281938113969C938E9312979F
:10184000E0E0F0E0D80112968D919C9113970097FB
:1018500019F0F8018C01F6CF8D919C9198012E5FC3
:101860003F4F820F931F2091570230915802281743
:10187000390769F4309729F410925A0210925902EC
:1018800002C0138212821093580200935702DF9114
:10189000CF911F910F91089581E090E0F8940C94FE
:0618A000510CF894FFCF8B
:1018A600C80001FF00005B02800002000300040084
:1018B60005000600070008000900000000004503B7
:1018C600AE02DD028C030E03EC0200030D0A004D8E
:1018D6006F64653A200054726970706564206275A1
:1018E60074746F6E3A2000506C6179696E6720736C
:1018F6006F6E673A200054656D706F3A20004E7522
:101906006D206E6F7465733A200041484800534F4E
:101916004E47204C4F41444544004E6F74653A2073
:021926000000BF
:107E0000112484B714BE81FFF0D085E080938100F7
:107E100082E08093C00088E18093C10086E0809377
:107E2000C20080E18093C4008EE0C9D0259A86E02C
:107E300020E33CEF91E0309385002093840096BBD3
:107E4000B09BFECF1D9AA8958150A9F7CC24DD24C4
:107E500088248394B5E0AB2EA1E19A2EF3E0BF2EE7
:107E6000A2D0813461F49FD0082FAFD0023811F036
:107E7000013811F484E001C083E08DD089C08234E0
:107E800011F484E103C0853419F485E0A6D080C0E4
:107E9000853579F488D0E82EFF2485D0082F10E0AE
:107EA000102F00270E291F29000F111F8ED06801E7
:107EB0006FC0863521F484E090D080E0DECF843638
:107EC00009F040C070D06FD0082F6DD080E0C81688
:107ED00080E7D80618F4F601B7BEE895C0E0D1E017
:107EE00062D089930C17E1F7F0E0CF16F0E7DF06D8
:107EF00018F0F601B7BEE89568D007B600FCFDCFD4
:107F0000A601A0E0B1E02C9130E011968C91119780
:107F100090E0982F8827822B932B1296FA010C0160
:107F200087BEE89511244E5F5F4FF1E0A038BF0790
:107F300051F7F601A7BEE89507B600FCFDCF97BE46
:107F4000E89526C08437B1F42ED02DD0F82E2BD052
:107F50003CD0F601EF2C8F010F5F1F4F84911BD097
:107F6000EA94F801C1F70894C11CD11CFA94CF0C13
:107F7000D11C0EC0853739F428D08EE10CD085E9AC
:107F80000AD08FE07ACF813511F488E018D01DD067
:107F900080E101D065CF982F8091C00085FFFCCF94
:107FA0009093C60008958091C00087FFFCCF809118
:107FB000C00084FD01C0A8958091C6000895E0E648
:107FC000F0E098E1908380830895EDDF803219F02E
:107FD00088E0F5DFFFCF84E1DECF1F93182FE3DFCA
:107FE0001150E9F7F2DF1F91089580E0E8DFEE27F6
:047FF000FF270994CA
:027FFE00040479
:0400000300007E007B
:00000001FF