:100000000C9435000C945D000C945D000C945D0024
:100010000C945D000C945D000C945D000C945D00EC
:100020000C945D000C945D000C945D000C945D00DC
:100030000C945D000C945D000C945D000C945D00CC
:100040000C94E7010C945D000C9457020C9431025F
:100050000C945D000C945D000C945D000C945D00AC
:100060000C945D000C945D00890211241FBECFEF3B
:10007000D8E0DEBFCDBF14E0A0E0B1E0ECE8F9E0ED
:1000800002C005900D92AE36B107D9F725E0AEE675
:10009000B4E001C01D92A534B207E1F710E0C5E35A
:1000A000D0E004C02197FE010E94B904C433D107F7
:1000B000C9F70E94B9020C94C4040C940000CF92BA
:1000C000DF92EF92FF920F931F93CF93DF936C0118
:1000D0007A018B01C0E0D0E0CE15DF0589F0D801B0
:1000E0006D918D01D601ED91FC910190F081E02D93
:1000F000C6010995892B11F47E0102C02196ECCF2F
:10010000C701DF91CF911F910F91FF90EF90DF908A
:10011000CF900895089580E090E00895FC01538DFC
:10012000448D252F30E0842F90E0821B930B5417D1
:1001300010F0CF96089501970895FC01918D828D5E
:10014000981761F0828DDF01A80FB11D5D968C912B
:10015000928D9F5F9F73928F90E008958FEF9FEF36
:100160000895FC01918D828D981731F0828DE80FF2
:10017000F11D858D90E008958FEF9FEF0895FC01AC
:10018000918D228D892F90E0805C9F4F821B910979
:100190008F73992708958FE894E00E94BF0021E0B3
:1001A000892B09F420E0822F0895FC01848DDF0162
:1001B000A80FB11DA35ABF4F2C91848D90E00196DA
:1001C0008F739927848FA689B7892C93A089B189C9
:1001D0008C9180648C93938D848D981306C00288D3
:1001E000F389E02D80818F7D80830895EF92FF92C7
:1001F0000F931F93CF93DF93EC0181E0888F9B8D4A
:100200008C8D981305C0E889F989808185FD24C00B
:10021000F62E0B8D10E00F5F1F4F0F731127E02E8E
:100220008C8DE8120CC00FB607FCFACFE889F9896B
:10023000808185FFF5CFCE010E94D500F1CF8B8D57
:10024000FE01E80FF11DE35AFF4FF0820B8FEA89A0
:10025000FB898081806207C0EE89FF896083E8891D
:10026000F98980818064808381E090E0DF91CF9183
:100270001F910F91FF90EF900895CF93DF93EC01C2
:10028000888D8823C9F0EA89FB89808185FD05C0B6
:10029000A889B9898C9186FD0FC00FB607FCF5CFF0
:1002A000808185FFF2CFA889B9898C9185FFEDCF38
:1002B000CE010E94D500E7CFDF91CF91089580E075
:1002C00090E0892B29F00E94CB0081110C94000052
:1002D0000895009769F0FC0101900020E9F731973B
:1002E000AF01481B590BBC018FE894E00C945F00F0
:1002F00080E090E008958F929F92AF92BF920F930B
:100300001F93CF93DF93CDB7DEB7A1970FB6F894C5
:10031000DEBF0FBECDBF19A2423008F44AE08E0105
:100320000F5D1F4F842E912CA12CB12CA50194019F
:100330000E949704E62FB901CA0101501109EA3061
:1003400014F4E05D01C0E95CD801EC93232B242B6D
:10035000252B61F7C8010E946901A1960FB6F89498
:10036000DEBF0FBECDBFDF91CF911F910F91BF9028
:10037000AF909F908F9008950E94BF040C948904C1
:100380000F931F93CF93DF931F92CDB7DEB78C01EE
:100390000F3F83E0180754F08FE394E00E94690157
:1003A00086E594E00E94690180E00BC0C801798372
:1003B0000E94BE017981672FC80101960E94BE018B
:1003C00081E00F90DF91CF911F910F9108951F92BF
:1003D0000F920FB60F9211242F933F938F939F93F9
:1003E000AF93BF9380918B0490918C04A0918D0466
:1003F000B0918E0430918A0423E0230F2D3720F42E
:100400000196A11DB11D05C026E8230F0296A11D6E
:10041000B11D20938A0480938B0490938C04A09345
:100420008D04B0938E048091860490918704A091EE
:100430008804B09189040196A11DB11D80938604A2
:1004400090938704A0938804B0938904BF91AF91DF
:100450009F918F913F912F910F900FBE0F901F9002
:1004600018951F920F920FB60F9211242F933F935E
:100470004F935F936F937F938F939F93AF93BF93AC
:10048000EF93FF938FE894E00E94D500FF91EF91E6
:10049000BF91AF919F918F917F916F915F914F919C
:1004A0003F912F910F900FBE0F901F9018951F92A4
:1004B0000F920FB60F9211242F938F939F93EF9368
:1004C000FF93E0919F04F091A0048081E091A50446
:1004D000F091A60482FD12C090818091A8048F5FE4
:1004E0008F732091A904821751F0E091A804F0E0E5
:1004F000E157FB4F958F8093A80401C08081FF9145
:10050000EF919F918F912F910F900FBE0F901F90A1
:100510001895EFE8F4E01382128288EE93E0A0E0F1
:10052000B0E084839583A683B78381E394E09183CD
:10053000808385EC90E09587848784EC90E09787B2
:10054000868780EC90E0918B808B81EC90E0938BA0
:10055000828B82EC90E0958B848B86EC90E0978B7D
:10056000868B118E128E138E148E84E08093440538
:100570000895789484B5826084BD84B5816084BD1B
:1005800085B5826085BD85B5816085BD80916E0031
:10059000816080936E001092810080918100826062
:1005A000809381008091810081608093810080919F
:1005B00080008160809380008091B100846080938E
:1005C000B1008091B00081608093B00080917A008A
:1005D000846080937A0080917A00826080937A00B0
:1005E00080917A00816080937A0080917A0080689F
:1005F00080937A001092C10088E0EEE7F4E0DF011A
:10060000982F1D929A95E9F7E6E7F4E0DF01982F1D
:100610001D929A95E9F7EEE6F4E0DF011D928A95C6
:10062000E9F784E0809344058EE4809330058FE8F9
:1006300093E090937F0480937E0481E493E0909311
:1006400077048093760488EC8093310588E3809367
:10065000360581ED92E0909381048093800489E9CE
:1006600092E0909379048093780484E68093370530
:100670008FE180933C058BE592E090938304809317
:1006800082048BE392E090937B0480937A0482E36C
:1006900080933D0589E691E09093850480938404DE
:1006A00080E091E090937D0480937C0480E58093CA
:1006B000430589E680934205E0919F04F091A004F0
:1006C00082E08083E0919B04F0919C041082E09191
:1006D0009D04F0919E048FEC80831092A704E0911A
:1006E000A304F091A40486E08083E091A104F0913A
:1006F000A204808180618083E091A104F091A20432
:10070000808188608083E091A104F091A2048081BF
:1007100080688083E091A104F091A20480818F7DA4
:10072000808389E594E00E9469016091440570E04E
:1007300080E090E04AE00E947B0186E594E00E9420
:1007400069013EE7A32E34E0B32E0CE215E07801F8
:10075000E501612C712C8091440590E068167906C2
:10076000C4F588819981892B61F1F701C480D12C6E
:10077000C114D10431F180912B0490912C04918308
:100780008083812C912CC401880F991FE881F98105
:10079000E80FF91F6081718180912B0490912C04E6
:1007A0000E94C00180912B0490912C04029690939A
:1007B0002C0480932B04FFEF8F1A9F0A8C149D0446
:1007C00014F38FEF681A780A229696E0E90EF11C6E
:1007D000C2CF86E7682E84E0782ECCE2D5E0812C6B
:1007E000912C60914405862F90E088169906B4F507
:1007F000D5018D919D915D01892B41F1EC80F12C0A
:10080000E114F10419F180912B0490912C049B8345
:100810008A83C12CD12CD301ED91FC91EC0DFD1DEF
:10082000608180912B0490912C040E94BE018091E4
:100830002B0490912C04019690932C0480932B040C
:10084000BFEFCB1ADB0ACE14DF042CF3EFEF8E1AC6
:100850009E0A2696F2E06F0E711CC3CF80E090E0F6
:100860000E948904C1E0D0E0D8016D917C91CE0155
:100870000E94C001F80162817381CE0102960E943C
:10088000C001CE01845D9A4F7C01DC0114966C910D
:10089000CE0104960E94BE01F7016381CE01059648
:1008A0000E94BE0126960A5F1F4FC931D105E1F6AD
:1008B000C12CD12C7601C6010E948104C82F4AE0C8
:1008C000C701B6010E947B018BE694E00E9469019A
:1008D0006C2F70E080E090E040E10E947B0186E5B3
:1008E00094E00E946901FFEFCF1ADF0AEF0AFF0AC6
:1008F000C11484E0D806E104F104E9F60E945F0126
:10090000FDCFF999FECF92BD81BDF89A992780B5A8
:100910000895262FF999FECF1FBA92BD81BD20BD43
:100920000FB6F894FA9AF99A0FBE01960895A1E2CB
:100930001A2EAA1BBB1BFD010DC0AA1FBB1FEE1F59
:10094000FF1FA217B307E407F50720F0A21BB30BA4
:10095000E40BF50B661F771F881F991F1A9469F720
:1009600060957095809590959B01AC01BD01CF017C
:100970000895EE0FFF1F0590F491E02D099481E09A
:0C09800090E0F8940C94C404F894FFCFAD
:10098C00101008101010101010101010081010106B
:10099C0010771010100810101010081010101008FC
:1009AC001010101004101010081010101008101057
:1009BC00101008101010101008101010081010084B
:1009CC001008101010081010101004040810081053
:1009DC00040810041010101010101010040810044B
:1009EC000810041010101010014A018801B801B849
:1009FC00010000B801EE010B020B0200000B024BD0
:100A0C0002EE01EE010000B8018801B80100004AB5
:100A1C00018801B801B8010000B801EE010B020B0E
:100A2C000200000B024B02EE01EE010000B801883F
:100A3C0001B80100004A018801B801B8010000B8F2
:100A4C00010B024B024B0200004B029302BA02BA9A
:100A5C0002000093024B029302B8010000B801EEB1
:100A6C00010B020B0200004B029302B8010000B80C
:100A7C00010B02EE01EE0100000B02B801EE0100C9
:100A8C0000B801B801930200000000BA0200000097
:100A9C00009302930200001003000093024B02002B
:100AAC000000004B02000000000B0200000000EEF2
:100ABC00010B020000EE010000B80108080810103C
:100ACC000810100408080810100810100408101062
:100ADC0008101020201010100810108801880188B0
:100AEC00014A01EE0188014A01EE0188014B024BDB
:100AFC00024B029302EE0172014A0188019F011020
:100B0C0003880188011003E402BA0293026E029377
:100B1C000200009F012A026E020C0C0C0C0C0C063D
:100B2C00030C0C0C0C0C0C06030C0C0C0C0C0C0617
:100B3C00030C0C0C0C0C0C06061212120606060604
:100B4C0006061212121212120A0A0A0A0A0A0303DF
:100B5C000306010B02DC00B801E900D20100000021
:100B6C000006010B02DC00B801E900D20100000014
:100B7C0000AF005D01930026019C003701000000CE
:100B8C0000AF005D01930026019C003701000000BE
:100B9C0000370115012601150137013701D000C4BA
:100BAC00001501060172015D01A500D201B8019F7B
:100BBC00013701F700E900DC00D000000000000064
:100BCC00000C0C0C0C0C0C0C0C0C0C0C0C0C0C0C65
:100BDC000C0C0C0C0C0C0C0C0C0C0C0C0C0C0C0C49
:100BEC000C0909090C0C0C0C0C0C0C0C0C0C0C0C42
:100BFC000C0C0C0C0C0C0C0C0C0C0C0C0C0C0C0C29
:100C0C000909090C0C0C0C0C0C0C0C0C0C0C0C4DE0
:100C1C000A4D0A00004D0A00002D084D0A00004044
:100C2C000C00000000000020060000000000002D59
:100C3C00080000000020060000000027050000004E
:100C4C0000E0060000B80700004907E0060000209D
:100C5C00064D0A400CC00D0000EA0A400C00004D85
:100C6C000A00002D082D09B807000000002D08000F
:100C7C00000000200600000000270500000000E036
:100C8C00060000B80700004907E006000020064DEA
:100C9C000A400CC00D0000EA0A400C00004D0A008E
:100CAC00002D082D09B807000000001900000000F5
:100CBC0000F6005F008E003D01BF009D00B1004DAD
:100CCC00454D4F525920424F554E445320455843A1
:100CDC004545444544000D0A004E756D6265722011
:0E0CEC006F6620736F6E67733A200009000078
:107E0000112484B714BE81FFF0D085E080938100F7
:107E100082E08093C00088E18093C10086E0809377
:107E2000C20080E18093C4008EE0C9D0259A86E02C
:107E300020E33CEF91E0309385002093840096BBD3
:107E4000B09BFECF1D9AA8958150A9F7CC24DD24C4
:107E500088248394B5E0AB2EA1E19A2EF3E0BF2EE7
:107E6000A2D0813461F49FD0082FAFD0023811F036
:107E7000013811F484E001C083E08DD089C08234E0
:107E800011F484E103C0853419F485E0A6D080C0E4
:107E9000853579F488D0E82EFF2485D0082F10E0AE
:107EA000102F00270E291F29000F111F8ED06801E7
:107EB0006FC0863521F484E090D080E0DECF843638
:107EC00009F040C070D06FD0082F6DD080E0C81688
:107ED00080E7D80618F4F601B7BEE895C0E0D1E017
:107EE00062D089930C17E1F7F0E0CF16F0E7DF06D8
:107EF00018F0F601B7BEE89568D007B600FCFDCFD4
:107F0000A601A0E0B1E02C9130E011968C91119780
:107F100090E0982F8827822B932B1296FA010C0160
:107F200087BEE89511244E5F5F4FF1E0A038BF0790
:107F300051F7F601A7BEE89507B600FCFDCF97BE46
:107F4000E89526C08437B1F42ED02DD0F82E2BD052
:107F50003CD0F601EF2C8F010F5F1F4F84911BD097
:107F6000EA94F801C1F70894C11CD11CFA94CF0C13
:107F7000D11C0EC0853739F428D08EE10CD085E9AC
:107F80000AD08FE07ACF813511F488E018D01DD067
:107F900080E101D065CF982F8091C00085FFFCCF94
:107FA0009093C60008958091C00087FFFCCF809118
:107FB000C00084FD01C0A8958091C6000895E0E648
:107FC000F0E098E1908380830895EDDF803219F02E
:107FD00088E0F5DFFFCF84E1DECF1F93182FE3DFCA
:107FE0001150E9F7F2DF1F91089580E0E8DFEE27F6
:047FF000FF270994CA
:027FFE00040479
:0400000300007E007B
:00000001FF